{
  "contractName": "StarNotary",
  "abi": [
    {
      "constant": true,
      "inputs": [
        {
          "name": "interfaceId",
          "type": "bytes4"
        }
      ],
      "name": "supportsInterface",
      "outputs": [
        {
          "name": "",
          "type": "bool"
        }
      ],
      "payable": false,
      "stateMutability": "view",
      "type": "function"
    },
    {
      "constant": true,
      "inputs": [
        {
          "name": "",
          "type": "uint256"
        }
      ],
      "name": "starsForSale",
      "outputs": [
        {
          "name": "",
          "type": "uint256"
        }
      ],
      "payable": false,
      "stateMutability": "view",
      "type": "function"
    },
    {
      "constant": true,
      "inputs": [
        {
          "name": "tokenId",
          "type": "uint256"
        }
      ],
      "name": "getApproved",
      "outputs": [
        {
          "name": "",
          "type": "address"
        }
      ],
      "payable": false,
      "stateMutability": "view",
      "type": "function"
    },
    {
      "constant": false,
      "inputs": [
        {
          "name": "to",
          "type": "address"
        },
        {
          "name": "tokenId",
          "type": "uint256"
        }
      ],
      "name": "approve",
      "outputs": [],
      "payable": false,
      "stateMutability": "nonpayable",
      "type": "function"
    },
    {
      "constant": false,
      "inputs": [
        {
          "name": "from",
          "type": "address"
        },
        {
          "name": "to",
          "type": "address"
        },
        {
          "name": "tokenId",
          "type": "uint256"
        }
      ],
      "name": "transferFrom",
      "outputs": [],
      "payable": false,
      "stateMutability": "nonpayable",
      "type": "function"
    },
    {
      "constant": false,
      "inputs": [
        {
          "name": "from",
          "type": "address"
        },
        {
          "name": "to",
          "type": "address"
        },
        {
          "name": "tokenId",
          "type": "uint256"
        }
      ],
      "name": "safeTransferFrom",
      "outputs": [],
      "payable": false,
      "stateMutability": "nonpayable",
      "type": "function"
    },
    {
      "constant": true,
      "inputs": [
        {
          "name": "",
          "type": "bytes32"
        }
      ],
      "name": "myStarsHashMap",
      "outputs": [
        {
          "name": "",
          "type": "bool"
        }
      ],
      "payable": false,
      "stateMutability": "view",
      "type": "function"
    },
    {
      "constant": true,
      "inputs": [
        {
          "name": "tokenId",
          "type": "uint256"
        }
      ],
      "name": "ownerOf",
      "outputs": [
        {
          "name": "",
          "type": "address"
        }
      ],
      "payable": false,
      "stateMutability": "view",
      "type": "function"
    },
    {
      "constant": true,
      "inputs": [
        {
          "name": "owner",
          "type": "address"
        }
      ],
      "name": "balanceOf",
      "outputs": [
        {
          "name": "",
          "type": "uint256"
        }
      ],
      "payable": false,
      "stateMutability": "view",
      "type": "function"
    },
    {
      "constant": false,
      "inputs": [
        {
          "name": "to",
          "type": "address"
        },
        {
          "name": "approved",
          "type": "bool"
        }
      ],
      "name": "setApprovalForAll",
      "outputs": [],
      "payable": false,
      "stateMutability": "nonpayable",
      "type": "function"
    },
    {
      "constant": true,
      "inputs": [
        {
          "name": "",
          "type": "bytes32"
        }
      ],
      "name": "myStars",
      "outputs": [
        {
          "name": "",
          "type": "uint256"
        }
      ],
      "payable": false,
      "stateMutability": "view",
      "type": "function"
    },
    {
      "constant": false,
      "inputs": [
        {
          "name": "from",
          "type": "address"
        },
        {
          "name": "to",
          "type": "address"
        },
        {
          "name": "tokenId",
          "type": "uint256"
        },
        {
          "name": "_data",
          "type": "bytes"
        }
      ],
      "name": "safeTransferFrom",
      "outputs": [],
      "payable": false,
      "stateMutability": "nonpayable",
      "type": "function"
    },
    {
      "constant": true,
      "inputs": [
        {
          "name": "owner",
          "type": "address"
        },
        {
          "name": "operator",
          "type": "address"
        }
      ],
      "name": "isApprovedForAll",
      "outputs": [
        {
          "name": "",
          "type": "bool"
        }
      ],
      "payable": false,
      "stateMutability": "view",
      "type": "function"
    },
    {
      "anonymous": false,
      "inputs": [
        {
          "indexed": true,
          "name": "from",
          "type": "address"
        },
        {
          "indexed": true,
          "name": "to",
          "type": "address"
        },
        {
          "indexed": true,
          "name": "tokenId",
          "type": "uint256"
        }
      ],
      "name": "Transfer",
      "type": "event"
    },
    {
      "anonymous": false,
      "inputs": [
        {
          "indexed": true,
          "name": "owner",
          "type": "address"
        },
        {
          "indexed": true,
          "name": "approved",
          "type": "address"
        },
        {
          "indexed": true,
          "name": "tokenId",
          "type": "uint256"
        }
      ],
      "name": "Approval",
      "type": "event"
    },
    {
      "anonymous": false,
      "inputs": [
        {
          "indexed": true,
          "name": "owner",
          "type": "address"
        },
        {
          "indexed": true,
          "name": "operator",
          "type": "address"
        },
        {
          "indexed": false,
          "name": "approved",
          "type": "bool"
        }
      ],
      "name": "ApprovalForAll",
      "type": "event"
    },
    {
      "constant": false,
      "inputs": [
        {
          "name": "_name",
          "type": "string"
        },
        {
          "name": "_story",
          "type": "string"
        },
        {
          "name": "_ra",
          "type": "string"
        },
        {
          "name": "_dec",
          "type": "string"
        },
        {
          "name": "_mag",
          "type": "string"
        },
        {
          "name": "_tokenId",
          "type": "uint256"
        }
      ],
      "name": "createStar",
      "outputs": [],
      "payable": false,
      "stateMutability": "nonpayable",
      "type": "function"
    },
    {
      "constant": false,
      "inputs": [
        {
          "name": "_tokenId",
          "type": "uint256"
        },
        {
          "name": "_price",
          "type": "uint256"
        }
      ],
      "name": "putStarUpForSale",
      "outputs": [],
      "payable": false,
      "stateMutability": "nonpayable",
      "type": "function"
    },
    {
      "constant": false,
      "inputs": [
        {
          "name": "_tokenId",
          "type": "uint256"
        }
      ],
      "name": "buyStar",
      "outputs": [],
      "payable": true,
      "stateMutability": "payable",
      "type": "function"
    },
    {
      "constant": true,
      "inputs": [
        {
          "name": "_ra",
          "type": "string"
        },
        {
          "name": "_dec",
          "type": "string"
        },
        {
          "name": "_mag",
          "type": "string"
        }
      ],
      "name": "checkIfStarExist",
      "outputs": [
        {
          "name": "",
          "type": "bool"
        }
      ],
      "payable": false,
      "stateMutability": "view",
      "type": "function"
    },
    {
      "constant": true,
      "inputs": [
        {
          "name": "_ra",
          "type": "string"
        },
        {
          "name": "_dec",
          "type": "string"
        },
        {
          "name": "_mag",
          "type": "string"
        }
      ],
      "name": "convertToStarHash",
      "outputs": [
        {
          "name": "",
          "type": "bytes32"
        }
      ],
      "payable": false,
      "stateMutability": "pure",
      "type": "function"
    },
    {
      "constant": false,
      "inputs": [
        {
          "name": "_tokenId",
          "type": "uint256"
        }
      ],
      "name": "mint",
      "outputs": [],
      "payable": false,
      "stateMutability": "nonpayable",
      "type": "function"
    },
    {
      "constant": true,
      "inputs": [
        {
          "name": "_tokenId",
          "type": "uint256"
        }
      ],
      "name": "tokenIdToStarInfo",
      "outputs": [
        {
          "name": "",
          "type": "string"
        },
        {
          "name": "",
          "type": "string"
        },
        {
          "name": "",
          "type": "string"
        },
        {
          "name": "",
          "type": "string"
        },
        {
          "name": "",
          "type": "string"
        }
      ],
      "payable": false,
      "stateMutability": "view",
      "type": "function"
    }
  ],
  "bytecode": "0x6080604052620000416301ffc9a77c01000000000000000000000000000000000000000000000000000000000262000084640100000000026401000000009004565b6200007e6380ac58cd7c01000000000000000000000000000000000000000000000000000000000262000084640100000000026401000000009004565b62000142565b63ffffffff7c010000000000000000000000000000000000000000000000000000000002817bffffffffffffffffffffffffffffffffffffffffffffffffffffffff191614151515620000d657600080fd5b6001600080837bffffffffffffffffffffffffffffffffffffffffffffffffffffffff19167bffffffffffffffffffffffffffffffffffffffffffffffffffffffff1916815260200190815260200160002060006101000a81548160ff02191690831515021790555050565b612afe80620001526000396000f300608060405260043610610112576000357c0100000000000000000000000000000000000000000000000000000000900463ffffffff16806301ffc9a7146101175780630384153d1461017b5780630564b13014610288578063081812fc146102c9578063095ea7b3146103365780631967fd981461038357806323b872dd146105d95780632f1c34ef14610646578063316a43611461066657806342842e0e1461069d578063511769621461070a5780636352211e1461075357806370a08231146107c0578063a0712d6814610817578063a22cb46514610844578063b250ced014610893578063b4c7468914610a1e578063b88d4fde14610a63578063d30c516f14610b16578063e985e9c514610c27575b600080fd5b34801561012357600080fd5b5061016160048036038101908080357bffffffffffffffffffffffffffffffffffffffffffffffffffffffff19169060200190929190505050610ca2565b604051808215151515815260200191505060405180910390f35b34801561018757600080fd5b5061026e600480360381019080803590602001908201803590602001908080601f0160208091040260200160405190810160405280939291908181526020018383808284378201915050505050509192919290803590602001908201803590602001908080601f0160208091040260200160405190810160405280939291908181526020018383808284378201915050505050509192919290803590602001908201803590602001908080601f0160208091040260200160405190810160405280939291908181526020018383808284378201915050505050509192919290505050610d09565b604051808215151515815260200191505060405180910390f35b34801561029457600080fd5b506102b360048036038101908080359060200190929190505050610d4c565b6040518082815260200191505060405180910390f35b3480156102d557600080fd5b506102f460048036038101908080359060200190929190505050610d64565b604051808273ffffffffffffffffffffffffffffffffffffffff1673ffffffffffffffffffffffffffffffffffffffff16815260200191505060405180910390f35b34801561034257600080fd5b50610381600480360381019080803573ffffffffffffffffffffffffffffffffffffffff16906020019092919080359060200190929190505050610db5565b005b34801561038f57600080fd5b506103ae60048036038101908080359060200190929190505050610efa565b60405180806020018060200180602001806020018060200186810386528b818151815260200191508051906020019080838360005b838110156103fe5780820151818401526020810190506103e3565b50505050905090810190601f16801561042b5780820380516001836020036101000a031916815260200191505b5086810385528a818151815260200191508051906020019080838360005b83811015610464578082015181840152602081019050610449565b50505050905090810190601f1680156104915780820380516001836020036101000a031916815260200191505b50868103845289818151815260200191508051906020019080838360005b838110156104ca5780820151818401526020810190506104af565b50505050905090810190601f1680156104f75780820380516001836020036101000a031916815260200191505b50868103835288818151815260200191508051906020019080838360005b83811015610530578082015181840152602081019050610515565b50505050905090810190601f16801561055d5780820380516001836020036101000a031916815260200191505b50868103825287818151815260200191508051906020019080838360005b8381101561059657808201518184015260208101905061057b565b50505050905090810190601f1680156105c35780820380516001836020036101000a031916815260200191505b509a505050505050505050505060405180910390f35b3480156105e557600080fd5b50610644600480360381019080803573ffffffffffffffffffffffffffffffffffffffff169060200190929190803573ffffffffffffffffffffffffffffffffffffffff1690602001909291908035906020019092919050505061128f565b005b6106646004803603810190808035906020019092919050505061135e565b005b34801561067257600080fd5b5061069b6004803603810190808035906020019092919080359060200190929190505050611506565b005b3480156106a957600080fd5b50610708600480360381019080803573ffffffffffffffffffffffffffffffffffffffff169060200190929190803573ffffffffffffffffffffffffffffffffffffffff16906020019092919080359060200190929190505050611605565b005b34801561071657600080fd5b506107396004803603810190808035600019169060200190929190505050611626565b604051808215151515815260200191505060405180910390f35b34801561075f57600080fd5b5061077e60048036038101908080359060200190929190505050611646565b604051808273ffffffffffffffffffffffffffffffffffffffff1673ffffffffffffffffffffffffffffffffffffffff16815260200191505060405180910390f35b3480156107cc57600080fd5b50610801600480360381019080803573ffffffffffffffffffffffffffffffffffffffff1690602001909291905050506116c4565b6040518082815260200191505060405180910390f35b34801561082357600080fd5b5061084260048036038101908080359060200190929190505050611748565b005b34801561085057600080fd5b50610891600480360381019080803573ffffffffffffffffffffffffffffffffffffffff169060200190929190803515159060200190929190505050611755565b005b34801561089f57600080fd5b50610a1c600480360381019080803590602001908201803590602001908080601f0160208091040260200160405190810160405280939291908181526020018383808284378201915050505050509192919290803590602001908201803590602001908080601f0160208091040260200160405190810160405280939291908181526020018383808284378201915050505050509192919290803590602001908201803590602001908080601f0160208091040260200160405190810160405280939291908181526020018383808284378201915050505050509192919290803590602001908201803590602001908080601f0160208091040260200160405190810160405280939291908181526020018383808284378201915050505050509192919290803590602001908201803590602001908080601f016020809104026020016040519081016040528093929190818152602001838380828437820191505050505050919291929080359060200190929190505050611891565b005b348015610a2a57600080fd5b50610a4d6004803603810190808035600019169060200190929190505050611ff5565b6040518082815260200191505060405180910390f35b348015610a6f57600080fd5b50610b14600480360381019080803573ffffffffffffffffffffffffffffffffffffffff169060200190929190803573ffffffffffffffffffffffffffffffffffffffff16906020019092919080359060200190929190803590602001908201803590602001908080601f016020809104026020016040519081016040528093929190818152602001838380828437820191505050505050919291929050505061200d565b005b348015610b2257600080fd5b50610c09600480360381019080803590602001908201803590602001908080601f0160208091040260200160405190810160405280939291908181526020018383808284378201915050505050509192919290803590602001908201803590602001908080601f0160208091040260200160405190810160405280939291908181526020018383808284378201915050505050509192919290803590602001908201803590602001908080601f0160208091040260200160405190810160405280939291908181526020018383808284378201915050505050509192919290505050612035565b60405180826000191660001916815260200191505060405180910390f35b348015610c3357600080fd5b50610c88600480360381019080803573ffffffffffffffffffffffffffffffffffffffff169060200190929190803573ffffffffffffffffffffffffffffffffffffffff1690602001909291905050506121b9565b604051808215151515815260200191505060405180910390f35b6000806000837bffffffffffffffffffffffffffffffffffffffffffffffffffffffff19167bffffffffffffffffffffffffffffffffffffffffffffffffffffffff1916815260200190815260200160002060009054906101000a900460ff169050919050565b600080610d17858585612035565b905060086000826000191660001916815260200190815260200160002060009054906101000a900460ff169150509392505050565b60076020528060005260406000206000915090505481565b6000610d6f8261224d565b1515610d7a57600080fd5b6002600083815260200190815260200160002060009054906101000a900473ffffffffffffffffffffffffffffffffffffffff169050919050565b6000610dc082611646565b90508073ffffffffffffffffffffffffffffffffffffffff168373ffffffffffffffffffffffffffffffffffffffff1614151515610dfd57600080fd5b8073ffffffffffffffffffffffffffffffffffffffff163373ffffffffffffffffffffffffffffffffffffffff161480610e3d5750610e3c81336121b9565b5b1515610e4857600080fd5b826002600084815260200190815260200160002060006101000a81548173ffffffffffffffffffffffffffffffffffffffff021916908373ffffffffffffffffffffffffffffffffffffffff160217905550818373ffffffffffffffffffffffffffffffffffffffff168273ffffffffffffffffffffffffffffffffffffffff167f8c5be1e5ebec7d5bd14f71427d1e84f3dd0314c0f7b2291e5b200ac8c7c3b92560405160405180910390a4505050565b6060806060806060600660008781526020019081526020016000206000016006600088815260200190815260200160002060010160066000898152602001908152602001600020600201600660008a8152602001908152602001600020600301600660008b8152602001908152602001600020600401848054600181600116156101000203166002900480601f0160208091040260200160405190810160405280929190818152602001828054600181600116156101000203166002900480156110055780601f10610fda57610100808354040283529160200191611005565b820191906000526020600020905b815481529060010190602001808311610fe857829003601f168201915b50505050509450838054600181600116156101000203166002900480601f0160208091040260200160405190810160405280929190818152602001828054600181600116156101000203166002900480156110a15780601f10611076576101008083540402835291602001916110a1565b820191906000526020600020905b81548152906001019060200180831161108457829003601f168201915b50505050509350828054600181600116156101000203166002900480601f01602080910402602001604051908101604052809291908181526020018280546001816001161561010002031660029004801561113d5780601f106111125761010080835404028352916020019161113d565b820191906000526020600020905b81548152906001019060200180831161112057829003601f168201915b50505050509250818054600181600116156101000203166002900480601f0160208091040260200160405190810160405280929190818152602001828054600181600116156101000203166002900480156111d95780601f106111ae576101008083540402835291602001916111d9565b820191906000526020600020905b8154815290600101906020018083116111bc57829003601f168201915b50505050509150808054600181600116156101000203166002900480601f0160208091040260200160405190810160405280929190818152602001828054600181600116156101000203166002900480156112755780601f1061124a57610100808354040283529160200191611275565b820191906000526020600020905b81548152906001019060200180831161125857829003601f168201915b505050505090509450945094509450945091939590929450565b61129933826122bf565b15156112a457600080fd5b600073ffffffffffffffffffffffffffffffffffffffff168273ffffffffffffffffffffffffffffffffffffffff16141515156112e057600080fd5b6112ea8382612354565b6112f48382612457565b6112fe8282612586565b808273ffffffffffffffffffffffffffffffffffffffff168473ffffffffffffffffffffffffffffffffffffffff167fddf252ad1be2c89b69c2b068fc378daa952ba7f163c4a11628f55a4df523b3ef60405160405180910390a4505050565b6000806000600760008581526020019081526020016000205411151561138357600080fd5b600760008481526020019081526020016000205491503073ffffffffffffffffffffffffffffffffffffffff16636352211e846040518263ffffffff167c010000000000000000000000000000000000000000000000000000000002815260040180828152602001915050602060405180830381600087803b15801561140857600080fd5b505af115801561141c573d6000803e3d6000fd5b505050506040513d602081101561143257600080fd5b8101908080519060200190929190505050905081341015151561145457600080fd5b61145e8184612457565b6114683384612586565b8073ffffffffffffffffffffffffffffffffffffffff166108fc839081150290604051600060405180830381858888f193505050501580156114ae573d6000803e3d6000fd5b5081341115611501573373ffffffffffffffffffffffffffffffffffffffff166108fc8334039081150290604051600060405180830381858888f193505050501580156114ff573d6000803e3d6000fd5b505b505050565b3373ffffffffffffffffffffffffffffffffffffffff163073ffffffffffffffffffffffffffffffffffffffff16636352211e846040518263ffffffff167c010000000000000000000000000000000000000000000000000000000002815260040180828152602001915050602060405180830381600087803b15801561158c57600080fd5b505af11580156115a0573d6000803e3d6000fd5b505050506040513d60208110156115b657600080fd5b810190808051906020019092919050505073ffffffffffffffffffffffffffffffffffffffff161415156115e957600080fd5b8060076000848152602001908152602001600020819055505050565b611621838383602060405190810160405280600081525061200d565b505050565b60086020528060005260406000206000915054906101000a900460ff1681565b6000806001600084815260200190815260200160002060009054906101000a900473ffffffffffffffffffffffffffffffffffffffff169050600073ffffffffffffffffffffffffffffffffffffffff168173ffffffffffffffffffffffffffffffffffffffff16141515156116bb57600080fd5b80915050919050565b60008073ffffffffffffffffffffffffffffffffffffffff168273ffffffffffffffffffffffffffffffffffffffff161415151561170157600080fd5b600360008373ffffffffffffffffffffffffffffffffffffffff1673ffffffffffffffffffffffffffffffffffffffff168152602001908152602001600020549050919050565b61175233826126e0565b50565b3373ffffffffffffffffffffffffffffffffffffffff168273ffffffffffffffffffffffffffffffffffffffff161415151561179057600080fd5b80600460003373ffffffffffffffffffffffffffffffffffffffff1673ffffffffffffffffffffffffffffffffffffffff16815260200190815260200160002060008473ffffffffffffffffffffffffffffffffffffffff1673ffffffffffffffffffffffffffffffffffffffff16815260200190815260200160002060006101000a81548160ff0219169083151502179055508173ffffffffffffffffffffffffffffffffffffffff163373ffffffffffffffffffffffffffffffffffffffff167f17307eab39ab6107e8899845ad3d59bd9653f200f220920489ca2b5937696c3183604051808215151515815260200191505060405180910390a35050565b6118996129fd565b60006040518060000190506040518091039020600019166006600085815260200190815260200160002060020160405160200180828054600181600116156101000203166002900480156119245780601f10611902576101008083540402835291820191611924565b820191906000526020600020905b815481529060010190602001808311611910575b50509150506040516020818303038152906040526040518082805190602001908083835b60208310151561196d5780518252602082019150602081019050602083039250611948565b6001836020036101000a0380198251168184511680821785525050505050509050019150506040518091039020600019161415156119aa57600080fd5b604051806000019050604051809103902060001916600660008581526020019081526020016000206003016040516020018082805460018160011615610100020316600290048015611a335780601f10611a11576101008083540402835291820191611a33565b820191906000526020600020905b815481529060010190602001808311611a1f575b50509150506040516020818303038152906040526040518082805190602001908083835b602083101515611a7c5780518252602082019150602081019050602083039250611a57565b6001836020036101000a038019825116818451168082178552505050505050905001915050604051809103902060001916141515611ab957600080fd5b604051806000019050604051809103902060001916600660008581526020019081526020016000206004016040516020018082805460018160011615610100020316600290048015611b425780601f10611b20576101008083540402835291820191611b42565b820191906000526020600020905b815481529060010190602001808311611b2e575b50509150506040516020818303038152906040526040518082805190602001908083835b602083101515611b8b5780518252602082019150602081019050602083039250611b66565b6001836020036101000a038019825116818451168082178552505050505050905001915050604051809103902060001916141515611bc857600080fd5b604051806000019050604051809103902060001916866040516020018082805190602001908083835b602083101515611c165780518252602082019150602081019050602083039250611bf1565b6001836020036101000a0380198251168184511680821785525050505050509050019150506040516020818303038152906040526040518082805190602001908083835b602083101515611c7f5780518252602082019150602081019050602083039250611c5a565b6001836020036101000a03801982511681845116808217855250505050505090500191505060405180910390206000191614151515611cbd57600080fd5b604051806000019050604051809103902060001916856040516020018082805190602001908083835b602083101515611d0b5780518252602082019150602081019050602083039250611ce6565b6001836020036101000a0380198251168184511680821785525050505050509050019150506040516020818303038152906040526040518082805190602001908083835b602083101515611d745780518252602082019150602081019050602083039250611d4f565b6001836020036101000a03801982511681845116808217855250505050505090500191505060405180910390206000191614151515611db257600080fd5b604051806000019050604051809103902060001916846040516020018082805190602001908083835b602083101515611e005780518252602082019150602081019050602083039250611ddb565b6001836020036101000a0380198251168184511680821785525050505050509050019150506040516020818303038152906040526040518082805190602001908083835b602083101515611e695780518252602082019150602081019050602083039250611e44565b6001836020036101000a03801982511681845116808217855250505050505090500191505060405180910390206000191614151515611ea757600080fd5b60008314151515611eb757600080fd5b611ec2868686610d09565b151515611ece57600080fd5b60a06040519081016040528089815260200188815260200187815260200186815260200185815250915081600660008581526020019081526020016000206000820151816000019080519060200190611f28929190612a2d565b506020820151816001019080519060200190611f45929190612a2d565b506040820151816002019080519060200190611f62929190612a2d565b506060820151816003019080519060200190611f7f929190612a2d565b506080820151816004019080519060200190611f9c929190612a2d565b50905050611fab868686612035565b9050600160086000836000191660001916815260200190815260200160002060006101000a81548160ff021916908315150217905550611feb33846126e0565b5050505050505050565b60056020528060005260406000206000915090505481565b61201884848461128f565b61202484848484612786565b151561202f57600080fd5b50505050565b60008383836040516020018084805190602001908083835b602083101515612072578051825260208201915060208101905060208303925061204d565b6001836020036101000a03801982511681845116808217855250505050505090500183805190602001908083835b6020831015156120c557805182526020820191506020810190506020830392506120a0565b6001836020036101000a03801982511681845116808217855250505050505090500182805190602001908083835b60208310151561211857805182526020820191506020810190506020830392506120f3565b6001836020036101000a03801982511681845116808217855250505050505090500193505050506040516020818303038152906040526040518082805190602001908083835b602083101515612183578051825260208201915060208101905060208303925061215e565b6001836020036101000a038019825116818451168082178552505050505050905001915050604051809103902090509392505050565b6000600460008473ffffffffffffffffffffffffffffffffffffffff1673ffffffffffffffffffffffffffffffffffffffff16815260200190815260200160002060008373ffffffffffffffffffffffffffffffffffffffff1673ffffffffffffffffffffffffffffffffffffffff16815260200190815260200160002060009054906101000a900460ff16905092915050565b6000806001600084815260200190815260200160002060009054906101000a900473ffffffffffffffffffffffffffffffffffffffff169050600073ffffffffffffffffffffffffffffffffffffffff168173ffffffffffffffffffffffffffffffffffffffff161415915050919050565b6000806122cb83611646565b90508073ffffffffffffffffffffffffffffffffffffffff168473ffffffffffffffffffffffffffffffffffffffff16148061233a57508373ffffffffffffffffffffffffffffffffffffffff1661232284610d64565b73ffffffffffffffffffffffffffffffffffffffff16145b8061234b575061234a81856121b9565b5b91505092915050565b8173ffffffffffffffffffffffffffffffffffffffff1661237482611646565b73ffffffffffffffffffffffffffffffffffffffff1614151561239657600080fd5b600073ffffffffffffffffffffffffffffffffffffffff166002600083815260200190815260200160002060009054906101000a900473ffffffffffffffffffffffffffffffffffffffff1673ffffffffffffffffffffffffffffffffffffffff161415156124535760006002600083815260200190815260200160002060006101000a81548173ffffffffffffffffffffffffffffffffffffffff021916908373ffffffffffffffffffffffffffffffffffffffff1602179055505b5050565b8173ffffffffffffffffffffffffffffffffffffffff1661247782611646565b73ffffffffffffffffffffffffffffffffffffffff1614151561249957600080fd5b6124ec6001600360008573ffffffffffffffffffffffffffffffffffffffff1673ffffffffffffffffffffffffffffffffffffffff168152602001908152602001600020546129a890919063ffffffff16565b600360008473ffffffffffffffffffffffffffffffffffffffff1673ffffffffffffffffffffffffffffffffffffffff1681526020019081526020016000208190555060006001600083815260200190815260200160002060006101000a81548173ffffffffffffffffffffffffffffffffffffffff021916908373ffffffffffffffffffffffffffffffffffffffff1602179055505050565b600073ffffffffffffffffffffffffffffffffffffffff166001600083815260200190815260200160002060009054906101000a900473ffffffffffffffffffffffffffffffffffffffff1673ffffffffffffffffffffffffffffffffffffffff161415156125f457600080fd5b816001600083815260200190815260200160002060006101000a81548173ffffffffffffffffffffffffffffffffffffffff021916908373ffffffffffffffffffffffffffffffffffffffff1602179055506126996001600360008573ffffffffffffffffffffffffffffffffffffffff1673ffffffffffffffffffffffffffffffffffffffff168152602001908152602001600020546129c990919063ffffffff16565b600360008473ffffffffffffffffffffffffffffffffffffffff1673ffffffffffffffffffffffffffffffffffffffff168152602001908152602001600020819055505050565b600073ffffffffffffffffffffffffffffffffffffffff168273ffffffffffffffffffffffffffffffffffffffff161415151561271c57600080fd5b6127268282612586565b808273ffffffffffffffffffffffffffffffffffffffff16600073ffffffffffffffffffffffffffffffffffffffff167fddf252ad1be2c89b69c2b068fc378daa952ba7f163c4a11628f55a4df523b3ef60405160405180910390a45050565b6000806127a88573ffffffffffffffffffffffffffffffffffffffff166129ea565b15156127b7576001915061299f565b8473ffffffffffffffffffffffffffffffffffffffff1663150b7a02338887876040518563ffffffff167c0100000000000000000000000000000000000000000000000000000000028152600401808573ffffffffffffffffffffffffffffffffffffffff1673ffffffffffffffffffffffffffffffffffffffff1681526020018473ffffffffffffffffffffffffffffffffffffffff1673ffffffffffffffffffffffffffffffffffffffff16815260200183815260200180602001828103825283818151815260200191508051906020019080838360005b838110156128ac578082015181840152602081019050612891565b50505050905090810190601f1680156128d95780820380516001836020036101000a031916815260200191505b5095505050505050602060405180830381600087803b1580156128fb57600080fd5b505af115801561290f573d6000803e3d6000fd5b505050506040513d602081101561292557600080fd5b8101908080519060200190929190505050905063150b7a027c0100000000000000000000000000000000000000000000000000000000027bffffffffffffffffffffffffffffffffffffffffffffffffffffffff1916817bffffffffffffffffffffffffffffffffffffffffffffffffffffffff19161491505b50949350505050565b6000808383111515156129ba57600080fd5b82840390508091505092915050565b60008082840190508381101515156129e057600080fd5b8091505092915050565b600080823b905060008111915050919050565b60a06040519081016040528060608152602001606081526020016060815260200160608152602001606081525090565b828054600181600116156101000203166002900490600052602060002090601f016020900481019282601f10612a6e57805160ff1916838001178555612a9c565b82800160010185558215612a9c579182015b82811115612a9b578251825591602001919060010190612a80565b5b509050612aa99190612aad565b5090565b612acf91905b80821115612acb576000816000905550600101612ab3565b5090565b905600a165627a7a72305820eba84fb0813cbca64d3f2f0d1a47e81be1f533a91a4d9523f794d1e5acd2069e0029",
  "source": "pragma solidity ^0.4.24;\r\n\r\nimport \"../node_modules/openzeppelin-solidity/contracts/token/ERC721/ERC721.sol\";\r\n\r\ncontract StarNotary is ERC721 { \r\n\r\n    struct Star { \r\n        string name; \r\n        string story;\r\n        string ra;\r\n        string dec;\r\n        string mag;\r\n    }\r\n\r\n    mapping(bytes32 => uint256) public myStars;\r\n\r\n\r\n    mapping(uint256 => Star) public tokenIdToStarInfo; \r\n    mapping(uint256 => uint256) public starsForSale;\r\n    mapping(bytes32 => bool) public myStarsHashMap;\r\n\r\n\r\n    \r\n\r\n    function createStar(string _name, string _story, string _ra, string _dec, string _mag, uint256 _tokenId) public { \r\n        \r\n\r\n        //check if tokenId already exists\r\n        require(keccak256(abi.encodePacked(tokenIdToStarInfo[_tokenId].ra)) == keccak256(\"\"));\r\n        require(keccak256(abi.encodePacked(tokenIdToStarInfo[_tokenId].dec)) == keccak256(\"\"));\r\n        require(keccak256(abi.encodePacked(tokenIdToStarInfo[_tokenId].mag)) == keccak256(\"\"));\r\n\r\n    \r\n        //check new star data inputs if already exists \r\n        require(keccak256(abi.encodePacked(_ra)) != keccak256(\"\"));\r\n        require(keccak256(abi.encodePacked(_dec)) != keccak256(\"\"));\r\n        require(keccak256(abi.encodePacked(_mag)) != keccak256(\"\"));\r\n        require(_tokenId != 0);\r\n    \r\n        //check star existence\r\n        require(!checkIfStarExist(_ra, _dec, _mag));\r\n\r\n\r\n\r\n\r\n        Star memory newStar = Star(_name, _story, _ra, _dec, _mag);\r\n        tokenIdToStarInfo[_tokenId] = newStar;\r\n        bytes32 hash = convertToStarHash(_ra, _dec, _mag);\r\n        myStarsHashMap[hash] = true;\r\n\r\n       \r\n        _mint(msg.sender, _tokenId);\r\n    }\r\n\r\n\r\n    function putStarUpForSale(uint256 _tokenId, uint256 _price) public {\r\n        \r\n        //check if  the owner of tokenId is who  initially deployed the contract, the owner of the contract. \r\n        require(this.ownerOf(_tokenId) == msg.sender);\r\n\r\n        starsForSale[_tokenId] = _price;\r\n    }\r\n\r\n\r\n    function buyStar(uint256 _tokenId) public payable { \r\n        \r\n        // Verify if the star is for sale\r\n        require(starsForSale[_tokenId] > 0);\r\n        \r\n        uint256 starPrice = starsForSale[_tokenId];\r\n        address starOwner = this.ownerOf(_tokenId);\r\n        \r\n        // Verify you have amount\r\n        require(msg.value >= starPrice);\r\n\r\n        _removeTokenFrom(starOwner, _tokenId);\r\n        _addTokenTo(msg.sender, _tokenId);\r\n        \r\n        \r\n        starOwner.transfer(starPrice);\r\n\r\n        // If everything is okay transfer\r\n        if(msg.value > starPrice) { \r\n            msg.sender.transfer(msg.value - starPrice);\r\n        }\r\n    }\r\n\r\n\r\n\r\n    function checkIfStarExist(string _ra, string _dec, string _mag) public view returns (bool){\r\n        bytes32 hash=convertToStarHash(_ra, _dec, _mag);\r\n        return myStarsHashMap[hash];\r\n    }\r\n\r\n    function convertToStarHash(string _ra, string _dec, string _mag) public pure returns(bytes32) {\r\n        return keccak256(abi.encodePacked(_ra, _dec, _mag));\r\n    }\r\n\r\n    function mint(uint256 _tokenId) public {\r\n        super._mint(msg.sender, _tokenId);\r\n    }\r\n    \r\n    function tokenIdToStarInfo(uint256 _tokenId) public view returns(string, string, string, string, string){\r\n        return (tokenIdToStarInfo[_tokenId].name, tokenIdToStarInfo[_tokenId].story, tokenIdToStarInfo[_tokenId].ra, tokenIdToStarInfo[_tokenId].dec, tokenIdToStarInfo[_tokenId].mag);\r\n    }\r\n}\r\n\r\n\r\n\r\n\r\n\r\n\r\n",
  "sourcePath": "C:\\private\\blockchain\\term2\\project5-final\\contracts\\StarNotary.sol",
  "compiler": {
    "name": "solc",
    "version": "0.4.24+commit.e67f0147.Emscripten.clang"
  },
  "schemaVersion": "2.0.1",
  "updatedAt": "2018-12-03T15:47:11.222Z"
}